:020000040000FA
:100000009CEF08F0000000001EEF06F00FEECBF0B2
:10001000620EEF6E0FEE92F0EFCF00F000880FEE61
:1000200092F000C0EFFF46EC08F00FEED5F0EFCFF6
:1000300000F0008C0FEED5F000C0EFFF0FEED5F012
:10004000EFCF00F0008A0FEED5F000C0EFFF0FEE0B
:10005000D5F0EFCF00F000880FEED5F000C0EFFF35
:100060000FEED5F0EFCF00F000860FEED5F000C018
:10007000EFFF0FEED5F0EFCF00F0008E0FEED5F0D2
:1000800000C0EFFF0FEECAF0EFCF00F0008C0FEED4
:10009000CAF000C0EFFF0FEECAF0EFCF00F0008A09
:1000A0000FEECAF000C0EFFF0FEECAF0EFCF00F086
:1000B00000880FEECAF000C0EFFF0FEECAF0EFCFDE
:1000C00000F000860FEECAF000C0EFFF0FEECAF09E
:1000D000EFCF00F000820FEECAF000C0EFFF0FEE8E
:1000E000CAF0EFCF00F000840FEECAF000C0EFFFBF
:1000F0000FEE9DF0EFCF00F000820FEE9DF000C0FC
:10010000EFFF0FEEF2F0EFCF00F0008E0FEEF2F007
:1001100000C0EFFF0FEEF2F0EFCF00F0008C0FEE1B
:10012000F2F000C0EFFF010EE56E42EC09F0E6527E
:10013000520EE56EF2EC08F0E652500EE56EF2EC6F
:1001400008F0E6524D0EE56EF2EC08F0E6523A0E7B
:10015000E56EF2EC08F0E65200018751E56E000111
:100160008651E56E000EE56E3C0EE56E92EC09F0F0
:10017000006EF3CF01F0040EE126030EE56EE80EEB
:10018000E56E0150E56E0050E56ED9EC04F0006EAE
:10019000F3CF01F0040EE126000EE56E0A0EE56EC7
:1001A0000150E56E0050E56E50EC05F0006EF3CFA7
:1001B00001F0040EE126300E00260050E56EF2EC50
:1001C00008F0E65200018751E56E00018651E56EA8
:1001D000000EE56E3C0EE56E92EC09F0006EF3CF7A
:1001E00001F0040EE126000EE56E640EE56E01508E
:1001F000E56E0050E56ED9EC04F0006EF3CF01F02F
:10020000040EE126000EE56E0A0EE56E0150E56E65
:100210000050E56E50EC05F0006EF3CF01F0040ED7
:10022000E126300E00260050E56EF2EC08F0E652B2
:1002300000018751E56E00018651E56E000EE56E06
:100240003C0EE56E92EC09F0006EF3CF01F0040E67
:10025000E126000EE56E0A0EE56E0150E56E0050D7
:10026000E56ED9EC04F0006EF3CF01F0040EE12648
:10027000000EE56E0A0EE56E0150E56E0050E56E6B
:1002800050EC05F0006EF3CF01F0040EE126300EC5
:1002900000260050E56EF2EC08F0E65200018751AE
:1002A000E56E00018651E56E000EE56E3C0EE56ED2
:1002B00092EC09F0006EF3CF01F0040EE126000E7F
:1002C000E56E0A0EE56E0150E56E0050E56E50ECED
:1002D00005F0006EF3CF01F0040EE126300E00268B
:1002E0000050E56EF2EC08F0E6521DD71200D9CFAF
:1002F000E5FFE1CFD9FF00C0E5FF01C0E5FF02C087
:10030000E5FF03C0E5FF04C0E5FF05C0E5FF06C04B
:10031000E5FF07C0E5FF08C0E5FF09C0E5FF0AC02B
:10032000E5FF0BC0E5FF0CC0E5FF0DC0E5FF020EC9
:10033000DBCF00F0030EDBCF01F0040EDBCF02F0C9
:10034000050EDBCF03F0060EDBCF04F0070EDBCF8C
:1003500005F0080EDBCF06F0090EDBCF07F0D880E2
:1003600003AED890086A083608500FE0031C0C6EE4
:10037000021C0B6E011C0A6E001C096E092A0DE19D
:100380000A2A0BE10B4A0C2A08D000C009F001C070
:100390000AF002C00BF003C00CF0D88007AED89072
:1003A000006A003600500FE0071C0D6E061C036E3D
:1003B000051C026E041C016E012A0DE1022A0BE1EC
:1003C000034A0D2A08D004C001F005C002F006C09F
:1003D00003F007C00DF00D50E56E0350E56E0250BE
:1003E000E56E0150E56E0C50E56E0B50E56E0A505F
:1003F000E56E0950E56ED1EC03F0016EF3CF02F02B
:10040000F4CF03F0E9CF04F0080EE1260050081AFB
:10041000085016E0041C076E031C066E021C056ED5
:10042000011C006E002A04E1052A02E1064A072A9F
:1004300007C0E9FF06C0F4FF05C0F3FF005007D076
:1004400004C0E9FF03C0F4FF02C0F3FF0150E4CF92
:100450000DF0E4CF0CF0E4CF0BF0E4CF0AF0E4CFE2
:1004600009F0E4CF08F0E4CF07F0E4CF06F0E4CFE2
:1004700005F0E4CF04F0E4CF03F0E4CF02F0E4CFE2
:1004800001F0E4CF00F0E4CFD9FF1200D9CFE5FFAF
:10049000E1CFD9FF00C0E5FF01C0E5FF02C0E5FFE5
:1004A0000FEE80F0000EEF6E0FEE84F0000EEF6E98
:1004B0000FEE83F0000EEF6E040E00018F5DD8B0DA
:1004C000A7D0FA6AFB6A00018F35FA36E834FA36AB
:1004D000FC0BE20FE56E040EFA22000EFB22E45044
:1004E000F96E79EF02F09DEF02F0C1EF02F0E5EF57
:1004F00002F0F80E00019025006E016A1F0E012225
:10050000026A000E022200C0F6FF01C0F7FF02C01F
:10051000F8FF0900F5CF00F00FEE83F000C0EFFF09
:100520000FEE80F0EFCF00F0008A0FEE80F000C0F9
:10053000EFFF010E00018F6F6DD0F80E00019125C5
:10054000006E016A1F0E0122026A000E022200C024
:10055000F6FF01C0F7FF02C0F8FF0900F5CF00F079
:100560000FEE83F000C0EFFF0FEE80F0EFCF00F052
:1005700000840FEE80F000C0EFFF020E00018F6FCD
:1005800049D0F80E00019225006E016A1F0E01226B
:10059000026A000E022200C0F6FF01C0F7FF02C08F
:1005A000F8FF0900F5CF00F00FEE83F000C0EFFF79
:1005B0000FEE84F0EFCF00F000800FEE84F000C06B
:1005C000EFFF030E00018F6F25D0F80E0001932579
:1005D000006E016A1F0E0122026A000E022200C094
:1005E000F6FF01C0F7FF02C0F8FF0900F5CF00F0E9
:1005F0000FEE83F000C0EFFF0FEE84F0EFCF00F0BE
:1006000000840FEE84F000C0EFFF00018F6B02D07A
:1006100000018F6BE4CF02F0E4CF01F0E4CF00F0F3
:10062000E4CFD9FF1200D9CFE5FFE1CFD9FF00C059
:10063000E5FF01C0E5FF02C0E5FF03C0E5FF04C020
:10064000E5FF05C0E5FF06C0E5FF07C0E5FF08C000
:10065000E5FF09C0E5FF006A016A026A0FEE81F05A
:10066000EFCF03F00F0E03120FEE81F003C0EFFF88
:100670000FEE81F0EFCF03F0010E046E005005E0A5
:10068000E86CD8900436010FFDE3041E04500316F5
:100690000FEE81F003C0EFFF640E036E032EFED752
:1006A000036A0FEE81F0EFCF04F003C005F0066A95
:1006B000040E0526D8B0062A010E076E000E086E3D
:1006C00005500FE007E6E86CD89007360836010FB2
:1006D000FCE307D0D89008BED88008320732010F5B
:1006E000FAE3096A04500716095008160750081063
:1006F00010E103500224046E010E056E045005E063
:10070000E86CD8900536010FFDE305500001811318
:1007100011D003500124046E010E056E045005E053
:10072000E86CD8900536010FFDE3051C046E0450FB
:1007300000018117032A020E035CD8A0B2D7012A58
:10074000012A022A022A002A040E005CD8A086D7B9
:10075000000182510001811903E10001950705D0D4
:100760000A0E0001956F81C082F00001955102E1EF
:1007700082C080F0E4CF09F0E4CF08F0E4CF07F0C6
:10078000E4CF06F0E4CF05F0E4CF04F0E4CF03F0CB
:10079000E4CF02F0E4CF01F0E4CF00F0E4CFD9FFE2
:1007A0001200D9CFE5FFE1CFD9FF00C0E5FF01C0BE
:1007B000E5FF02C0E5FF03C0E5FF04C0E5FF05C09B
:1007C000E5FF06C0E5FF07C0E5FF08C0E5FF09C07B
:1007D000E5FF0AC0E5FF0BC0E5FF0CC0E5FF0DC05B
:1007E000E5FF020EDBCF00F0030EDBCF01F0040EBD
:1007F000DBCF02F0050EDBCF03F0060EDBCF04F0FB
:10080000070EDBCF05F0080EDBCF06F0090EDBCFBD
:1008100007F0086A096A0A6A0B6A200E0C6E035018
:10082000800BE8440D6E0050002601360236033678
:100830000850082609360A360B360D50D8A4088011
:1008400007500B5C08E106500A5C05E10550095CA5
:1008500002E10450085C09E30450085E0550095A9F
:1008600006500A5A07500B5A00800C040D6E0DC03A
:100870000CF00D50D4E103C0E9FF02C0F4FF01C049
:10088000F3FF0050E4CF0DF0E4CF0CF0E4CF0BF019
:10089000E4CF0AF0E4CF09F0E4CF08F0E4CF07F0AA
:1008A000E4CF06F0E4CF05F0E4CF04F0E4CF03F0AA
:1008B000E4CF02F0E4CF01F0E4CF00F0E4CFD9FFC1
:1008C0001200D9CFE5FFE1CFD9FF00C0E5FF01C09D
:1008D000E5FF020EDBCF00F00FEE82F0EFCF01F06C
:1008E00001960FEE82F001C0EFFF0FEE82F0EFCF26
:1008F00001F001980FEE82F001C0EFFFD8900036B2
:10090000810E00120050E56E96EC07F0E6520FEEF5
:1009100094F0EFCF00F000880FEE94F000C0EFFFEE
:10092000640E0001946F0001940700019451FBE1F3
:10093000640E0001946F0001940700019451FBE1E3
:10094000640E0001946F0001940700019451FBE1D3
:10095000640E0001946F0001940700019451FBE1C3
:10096000640E0001946FE2EC09F0006E0FEE82F06D
:10097000EFCF01F001960FEE82F001C0EFFF0FEE16
:1009800082F0EFCF01F001980FEE82F001C0EFFF8F
:100990000FEE94F0EFCF01F001980FEE94F001C04C
:1009A000EFFF0050E4CF01F0E4CF00F0E4CFD9FF37
:1009B0001200D9CFE5FFE1CFD9FF00C0E5FF01C0AC
:1009C000E5FF02C0E5FF03C0E5FF04C0E5FF05C089
:1009D000E5FF06C0E5FF07C0E5FF020EDBCF00F034
:1009E000030EDBCF01F0040EDBCF02F0050EDBCFF0
:1009F00003F0D88001AED890046A0436045007E0B2
:100A0000011C066E001C056E054A062A04D000C0B3
:100A100005F001C006F0D88003AED890006A003619
:100A2000005007E0031C076E021C016E014A072AF2
:100A300004D002C001F003C007F00750E56E01507A
:100A4000E56E0650E56E0550E56EEEEC07F0016EC2
:100A5000F3CF02F0040EE1260050041A04500AE01D
:100A6000021C036E011C006E004A032A03C0F3FF40
:100A7000005003D002C0F3FF0150E4CF07F0E4CFF1
:100A800006F0E4CF05F0E4CF04F0E4CF03F0E4CFC8
:100A900002F0E4CF01F0E4CF00F0E4CFD9FF120080
:100AA000D9CFE5FFE1CFD9FF00C0E5FF01C0E5FFE9
:100AB00002C0E5FF03C0E5FF04C0E5FF05C0E5FF98
:100AC00006C0E5FF020EDBCF00F0030EDBCF01F026
:100AD000040EDBCF02F0050EDBCF03F0D88001AEB1
:100AE000D890046A0436045007E0011C066E001C0E
:100AF000056E054A062A04D000C005F001C006F0C4
:100B0000D88003AED89007E3031C016E021C006E70
:100B1000004A012A04D002C000F003C001F00150D5
:100B2000E56E0050E56E0650E56E0550E56E39EC59
:100B300007F0006EF3CF01F0040EE12604500AE046
:100B4000011C036E001C026E024A032A03C0F3FF5D
:100B5000025003D001C0F3FF0050E4CF06F0E4CF11
:100B600005F0E4CF04F0E4CF03F0E4CF02F0E4CFEB
:100B700001F0E4CF00F0E4CFD9FF1200D9CFE5FFB8
:100B8000E1CFD9FF00C0E5FF01C0E5FF02C0E5FFEE
:100B900003C0E5FF04C0E5FF05C0E5FF020EDBCFA3
:100BA00000F0030EDBCF01F00150E56E0050E56E62
:100BB000000EE56E020EE56E92EC09F0006EF3CFCA
:100BC00001F0040EE12600C002F001C003F0046A47
:100BD000056A0250FF08026EFF0E0356000E04560F
:100BE000000E05560250006E0350016EF20E0026F4
:100BF000D8A001060150026E036A0FEED7F002C0C2
:100C0000EFFF016A0FEED6F000C0EFFF0FEEF2F03B
:100C1000EFCF00F000940FEEF2F000C0EFFFE4CF52
:100C200005F0E4CF04F0E4CF03F0E4CF02F0E4CF2A
:100C300001F0E4CF00F0E4CFD9FF1200D8CFE5FFF8
:100C4000E0CFE5FFE56EF3CFE5FFF4CFE5FFE9CFB9
:100C5000E5FFEACFE5FFFACFE5FFFBCFE5FFD9CF10
:100C6000E5FFE1CFD9FF00C0E5FF01C0E5FF0FEED2
:100C70009EF0EFCF00F000A228D00FEED6F0EFCF1D
:100C800000F0016A00500001842701500001852313
:100C90000FEED6F0000EEF6E0FEE9EF0EFCF00F0ED
:100CA00000920FEE9EF000C0EFFF00018E2B0001BE
:100CB0008E51640A0AE100018E6B84C086F085C003
:100CC00087F00001846B0001856BE4CF01F0E4CF75
:100CD00000F0E4CFD9FFE4CFFBFFE4CFFAFFE4CF8D
:100CE000EAFFE4CFE9FFE4CFF4FFE4CFF3FFE45001
:100CF000E4CFE0FFE4CFD8FF1000D9CFE5FFE1CF8C
:100D0000D9FF00C0E5FF01C0E5FF02C0E5FF03C059
:100D1000E5FF020EDBCF00F0016A0FEECBF0EFCF64
:100D200002F0036A024A032A0350E56E0250E56EA0
:100D30000150E56E0050E56E92EC09F0006EF3CFC5
:100D400001F0040EE126000EE56E190EE56E01506D
:100D5000E56E0050E56EEEEC07F0006EF3CF01F0AB
:100D6000040EE126030E0116D8900130036E003008
:100D7000026ED890033202320FEEBBF002C0EFFFDA
:100D80000FEEBAF0EFCF02F0030E0016016A003842
:100D9000F00B016E015002120FEEBAF002C0EFFF2D
:100DA000E4CF03F0E4CF02F0E4CF01F0E4CF00F0B1
:100DB000E4CFD9FF1200D9CFE5FFE1CFD9FF00C0C2
:100DC000E5FF01C0E5FF02C0E5FF03C0E5FF020E3D
:100DD000DBCF00F0016A0FEECBF0EFCF02F0036A39
:100DE000024A032A0350E56E0250E56E0150E56E9B
:100DF0000050E56E92EC09F0006EF3CF01F0040EA6
:100E0000E126000EE56E190EE56E0150E56E00500C
:100E1000E56EEEEC07F0006EF3CF01F0040EE12674
:100E2000030E0116D8900130036E0030026ED89088
:100E3000033202320FEEBEF002C0EFFF0FEEBDF044
:100E4000EFCF02F0030E0016016A0038F00B016EBE
:100E5000015002120FEEBDF002C0EFFFE4CF03F02D
:100E6000E4CF02F0E4CF01F0E4CF00F0E4CFD9FF0B
:100E70001200D9CFE5FFE1CFD9FF00C0E5FF01C0E7
:100E8000E5FF02C0E5FF03C0E5FF04C0E5FF05C0C4
:100E9000E5FF06C0E5FF020EDBCF00F0030EDBCF5F
:100EA00001F0040EDBCF02F0050EDBCF03F0046A85
:100EB000056A0350800BE844066E065011E10250AB
:100EC000022603360350015C02E10250005C04E29A
:100ED000D8900332023204D0052A05C004F0E9D7C5
:100EE0000350015C02E10250005C04E30250005E2A
:100EF0000350015AD8900332023204C005F00406B0
:100F00000550EEE101C0F3FF0050E4CF06F0E4CF5E
:100F100005F0E4CF04F0E4CF03F0E4CF02F0E4CF37
:100F200001F0E4CF00F0E4CFD9FF1200D9CFE5FF04
:100F3000E1CFD9FF00C0E5FF01C0E5FF02C0E5FF3A
:100F4000020EDBCF00F0016A00A00AD00FEE82F0A3
:100F5000EFCF02F002880FEE82F002C0EFFF09D05F
:100F60000FEE82F0EFCF02F002980FEE82F002C097
:100F7000EFFFD89000320FEE82F0EFCF02F0028642
:100F80000FEE82F002C0EFFF640E0001946F0001CB
:100F9000940700019451FBE10FEE82F0EFCF02F0D5
:100FA00002960FEE82F002C0EFFF640E0001946F14
:100FB0000001940700019451FBE1640E0001946F5D
:100FC000012A080E015CD8A0BFD7E4CF02F0E4CF1D
:100FD00001F0E4CF00F0E4CFD9FF1200D9CFE5FF54
:100FE000E1CFD9FF00C0E5FF01C0E5FF02C0E5FF8A
:100FF00003C0E5FF04C0E5FF05C0E5FF06C0E5FF4F
:1010000007C0E5FF020EDBCF00F0030EDBCF01F0DF
:10101000040EDBCF02F0050EDBCF03F0046A056A95
:10102000100E066E0150800BE844076E005000263B
:1010300001360450042605360750D8A40480035016
:10104000055C02E10250045C05E30250045E0350BB
:10105000055A00800604076E07C006F00750E2E15B
:1010600001C0F3FF0050E4CF07F0E4CF06F0E4CF77
:1010700005F0E4CF04F0E4CF03F0E4CF02F0E4CFD6
:1010800001F0E4CF00F0E4CFD9FF1200D9CFE5FFA3
:10109000E1CFD9FF00C0E5FF5EEC0FF05EEC0FF092
:1010A0005EEC0FF05EEC0FF05EEC0FF00FEE96F0E2
:1010B000EFCF00F000900FEE96F000C0EFFF0FEEC4
:1010C00096F0EFCF00F000920FEE96F000C0EFFF29
:1010D0000FEE96F0EFCF00F000940FEE96F000C008
:1010E000EFFF0FEE95F0000EEF6E0FEEC1F00E0E5B
:1010F000EF6E380EE56E42EC09F0E652060EE56E34
:1011000042EC09F0E6520C0EE56E42EC09F0E652B4
:10111000030EE56E42EC09F0E652010EE56E42EC7C
:1011200009F0E652800EE56E42EC09F0E652E4CF9B
:1011300000F0E4CFD9FF120011EEFFF021EEFFF036
:10114000F86AA68EA69CE9680E0EEA6E0068ED6A43
:101150000050FDE1080EF66E200EF76E000EF86EE0
:101160000900F5CF05F00900F5CF06F034D00900ED
:10117000F5CF00F00900F5CF01F00900F5CF02F03E
:1011800009000900F5CFE9FF0900F5CFEAFF0900E2
:1011900009000900F5CF03F00900F5CF04F00900BC
:1011A0000900F6CF07F0F7CF08F0F8CF09F000C03C
:1011B000F6FF01C0F7FF02C0F8FF03D00900F5CF2A
:1011C000EEFF0306FBE20406F9E207C0F6FF08C0E3
:1011D000F7FF09C0F8FF0506CAE20606C8E206ECFA
:1011E00000F0FFD7D9CFE5FFE1CFD9FF00C0E5FF81
:1011F00001C0E5FF020EDBCF00F00FEE84F0EFCF71
:1012000001F001800FEE84F001C0EFFF0FEE84F0DB
:10121000EFCF01F001940FEE84F001C0EFFF0FEE6D
:1012200083F000C0EFFF0FEE84F0EFCF00F00082FC
:101230000FEE84F000C0EFFF8FEC0FF00FEE84F0A4
:10124000EFCF00F000920FEE84F000C0EFFF0FEE42
:1012500084F0EFCF00F000900FEE84F000C0EFFFBD
:101260000FEE84F0EFCF00F000940FEE84F000C09A
:10127000EFFF8FEC0FF0E4CF01F0E4CF00F0E4CF0C
:10128000D9FF1200D9CFE5FFE1CFD9FF00C0E5FFBC
:1012900001C0E5FF020EDBCF00F00FEE84F0EFCFD0
:1012A00001F001900FEE84F001C0EFFF0FEE84F02B
:1012B000EFCF01F001940FEE84F001C0EFFF0FEECD
:1012C00083F000C0EFFF0FEE84F0EFCF00F000825C
:1012D0000FEE84F000C0EFFF5EEC0FF00FEE84F035
:1012E000EFCF00F000920FEE84F000C0EFFF0FEEA2
:1012F00084F0EFCF00F000900FEE84F000C0EFFF1D
:101300000FEE84F0EFCF00F000940FEE84F000C0F9
:10131000EFFF5EEC0FF0E4CF01F0E4CF00F0E4CF9C
:10132000D9FF1200D9CFE5FFE1CFD9FF00C0E5FF1B
:1013300001C0E5FF02C0E5FF03C0E5FF020EDBCF01
:1013400000F0030EDBCF01F0040EDBCF02F0050E40
:10135000DBCF03F000500001886F0150896F02500D
:1013600000018A6F03508B6F0001885100018A03CE
:10137000F4CF01F0F3CF00F0005000018C6F01506A
:101380008D6F0001885100018B03F3CF00F0000145
:10139000895100018A03F3CF01F0015000260001BA
:1013A0008D51002600508D6F8DC0F3FF8C51E4CF1E
:1013B00003F0E4CF02F0E4CF01F0E4CF00F0E4CF9B
:1013C000D9FF1200D9CFE5FFE1CFD9FF00C0E5FF7B
:1013D00001C0E5FF02C0E5FF006A016A0FEE82F07E
:1013E000EFCF02F002860FEE82F002C0EFFF640E34
:1013F0000001946F0001940700019451FBE1640E19
:101400000001946FD89000320FEE82F0EFCF02F01F
:1014100002A801D0008E0FEE82F0EFCF02F002960C
:101420000FEE82F002C0EFFF640E0001946F000126
:10143000940700019451FBE1640E0001946F012AAE
:10144000080E015CD8A0CAD70050E4CF02F0E4CF68
:1014500001F0E4CF00F0E4CFD9FF1200D9CFE5FFCF
:10146000E1CFD9FF00C0E5FF01C0E5FF02C0E5FF05
:10147000020EDBCF00F0030EDBCF01F00FEE82F0A7
:10148000EFCF02F002960FEE82F002C0EFFF0FEEF8
:1014900082F0EFCF02F002980FEE82F002C0EFFF71
:1014A000D8900036008E0050E56E96EC07F0E652BC
:1014B0000150E56E96EC07F0E6520FEE82F0EFCFAA
:1014C00000F000960FEE82F000C0EFFF0FEE82F00A
:1014D000EFCF00F000980FEE82F000C0EFFFE4CFF6
:1014E00002F0E4CF01F0E4CF00F0E4CFD9FF120026
:1014F000D9CFE5FFE1CFD9FF000EE56E070EE56E0F
:101500002EEC0AF0E652E652000EE56E000EE56E95
:101510002EEC0AF0E652E652210EE56E010EE56E63
:101520002EEC0AF0E652E652230EE56E020EE56E50
:101530002EEC0AF0E652E652280EE56E030EE56E3A
:101540002EEC0AF0E652E652100EE56E040EE56E41
:101550002EEC0AF0E652E652060EE56E050EE56E3A
:101560002EEC0AF0E652E652120EE56E060EE56E1D
:101570002EEC0AF0E652E652E4CFD9FF1200D9CFA2
:10158000E5FFE1CFD9FF00C0E5FF0FEE94F0EFCF0C
:1015900000F000920FEE94F000C0EFFF0FEE94F019
:1015A000EFCF00F000940FEE94F000C0EFFF0FEECD
:1015B000CAF0EFCF00F0030E00120FEECAF000C029
:1015C000EFFF0FEECAF0EFCF00F000840FEECAF08D
:1015D00000C0EFFF0FEEBDF0EFCF00F00C0E0012D9
:1015E0000FEEBDF000C0EFFF0FEEBAF0EFCF00F04E
:1015F0000C0E00120FEEBAF000C0EFFFE4CF00F0C7
:10160000E4CFD9FF1200D9CFE5FFE1CFD9FF00C069
:10161000E5FF01C0E5FF02C0E5FF03C0E5FF020EE4
:10162000DBCF00F0030EDBCF01F0026A036A035048
:10163000E56E0250E56E0150E56E0050E56E000E5D
:10164000E56E010EE56EE80EE56E480EE56E77EC90
:1016500001F0006EF3CF01F0F4CF02F0E9CF03F018
:10166000080EE12600060FEECBF000C0EFFFE4CF3E
:1016700003F0E4CF02F0E4CF01F0E4CF00F0E4CFD8
:10168000D9FF1200D9CFE5FFE1CFD9FF00C0E5FFB8
:1016900001C0E5FF02C0E5FF03C0E5FF04C0E5FFB0
:1016A000020EDBCF00F0030EDBCF01F0026A080E62
:1016B000036E800E0014046ED8900036D890023667
:1016C0000450D8A402800150025C03E30150025E82
:1016D00000800304046E04C003F00450EAE10050EB
:1016E000E4CF04F0E4CF03F0E4CF02F0E4CF01F064
:1016F000E4CF00F0E4CFD9FF1200D9CFE5FFE1CF6E
:10170000D9FF00C0E5FF01C0E5FF02C0E5FF03C04F
:10171000E5FF0FEEC2F0EFCF00F000820FEEC2F057
:1017200000C0EFFF0FEEC2F0EFCF00F000B2FAD72B
:101730000FEEC4F0EFCF00F0016A0050016E006AB6
:101740000FEEC3F0EFCF02F0036A02500026035001
:10175000012201C0F3FF0050E4CF03F0E4CF02F018
:10176000E4CF01F0E4CF00F0E4CFD9FF1200D9CFED
:10177000E5FFE1CFD9FF00C0E5FF01C0E5FF02C0F2
:10178000E5FF03C0E5FF020EDBCF00F0030EDBCF69
:1017900001F0026A036A01BE0CD0D89001360150F4
:1017A000005C03E2D890013204D0032A03C002F0A7
:1017B000F2D70150005C02E30150005ED890013284
:1017C00002C003F002060350F4E10050E4CF03F03E
:1017D000E4CF02F0E4CF01F0E4CF00F0E4CFD9FF92
:1017E0001200D9CFE5FFE1CFD9FF00C0E5FF0FEE32
:1017F00092F0EFCF00F000940FEE92F000C0EFFFF8
:101800000FEE92F0EFCF00F0009A0FEE92F000C0D2
:10181000EFFF0FEE96F0EFCF00F000900FEE96F096
:1018200000C0EFFF0FEE96F0EFCF00F000940FEE48
:1018300096F000C0EFFF0FEEC1F00E0EEF6E0FEE50
:1018400095F0000EEF6EE4CF00F0E4CFD9FF120068
:10185000D9CFE5FFE1CFD9FF00C0E5FF01C0E5FF2B
:1018600002C0E5FF020EDBCF00F00A0EE56E00C0FD
:10187000E5FFB7EC0BF0016EE450E4500A0EE56EA4
:1018800000C0E5FF42EC0BF0006EE450E45000387D
:10189000F00B026E025001120150E56E060EE56E6D
:1018A0002EEC0AF0E652E652E4CF02F0E4CF01F06B
:1018B000E4CF00F0E4CFD9FF1200D9CFE5FFE1CFAC
:1018C000D9FF00C0E5FF01C0E5FF02C0E5FF020E41
:1018D000DBCF00F00A0EE56E00C0E5FFB7EC0BF0C1
:1018E000016EE450E4500A0EE56E00C0E5FF42ECE4
:1018F0000BF0006EE450E4500038F00B026E025022
:1019000001120150E56E040EE56E2EEC0AF0E6526F
:10191000E652E4CF02F0E4CF01F0E4CF00F0E4CFF0
:10192000D9FF1200D9CFE5FFE1CFD9FF00C0E5FF15
:1019300001C0E5FF02C0E5FF020EDBCF00F00A0E9A
:10194000E56E00C0E5FFB7EC0BF0016EE450E4502B
:101950000A0EE56E00C0E5FF42EC0BF0006EE450AD
:10196000E4500038F00B026E025001120150E56E97
:10197000030EE56E2EEC0AF0E652E652E4CF02F0DA
:10198000E4CF01F0E4CF00F0E4CFD9FF1200D9CFCB
:10199000E5FFE1CFD9FF00C0E5FF01C0E5FF02C0D0
:1019A000E5FF020EDBCF00F00A0EE56E00C0E5FF9A
:1019B000B7EC0BF0016EE450E4500A0EE56E00C087
:1019C000E5FF42EC0BF0006EE450E4500038F00B01
:1019D000026E025001120150E56E020EE56E2EEC11
:1019E0000AF0E652E652E4CF02F0E4CF01F0E4CF91
:1019F00000F0E4CFD9FF1200D9CFE5FFE1CFD9FF46
:101A000000C0E5FF01C0E5FF02C0E5FF020EDBCF2D
:101A100000F00A0EE56E00C0E5FFB7EC0BF0016EBA
:101A2000E450E4500A0EE56E00C0E5FF42EC0BF016
:101A3000006EE450E4500038F00B026E02500112C8
:101A40000150E56E010EE56E2EEC0AF0E652E6520C
:101A5000E4CF02F0E4CF01F0E4CF00F0E4CFD9FF0F
:101A60001200D9CFE5FFE1CFD9FF00C0E5FF01C0EB
:101A7000E5FF02C0E5FF020EDBCF00F00A0EE56EC7
:101A800000C0E5FFB7EC0BF0016EE450E4500A0E25
:101A9000E56E00C0E5FF42EC0BF0006EE450E45050
:101AA0000038F00B026E025001120150E56E000E7C
:101AB000E56E2EEC0AF0E652E652E4CF02F0E4CFF7
:101AC00001F0E4CF00F0E4CFD9FF1200D9CFE5FF59
:101AD000E1CFD9FF00C0E5FF01C0E5FF006A0FEECE
:101AE000ABF0EFCF01F001A212D00FEEABF0EFCFD1
:101AF00001F001980FEEABF001C0EFFF0FEEABF07D
:101B0000EFCF01F001880FEEABF001C0EFFF0FEE59
:101B10009EF0EFCF01F001AA04D00FEEAEF0EFCFB0
:101B200000F00050E4CF01F0E4CF00F0E4CFD9FFA3
:101B30001200D9CFE5FFE1CFD9FF00C0E5FF0FEEDE
:101B4000ACF02C0EEF6E0FEEABF0900EEF6E0FEED2
:101B5000B8F0080EEF6E0FEEB0F0000EEF6E0FEE65
:101B6000AFF0220EEF6E0FEE94F0EFCF00F0008C8E
:101B70000FEE94F000C0EFFF0FEE94F0EFCF00F007
:101B8000008E0FEE94F000C0EFFFE4CF00F0E4CF42
:101B9000D9FF1200D9CFE5FFE1CFD9FF00C0E5FFA3
:101BA00001C0E5FF020EDBCF00F0030EDBCF01F03A
:101BB000015002E100C090F00150010A02E100C0B2
:101BC00091F00150020A02E100C092F00150030AB4
:101BD00002E100C093F0E4CF01F0E4CF00F0E4CFE5
:101BE000D9FF1200D9CFE5FFE1CFD9FF00C0E5FF53
:101BF0000FEE94F0EFCF00F000980FEE94F000C0DD
:101C0000EFFF0FEE94F0EFCF00F000960FEE94F0A0
:101C100000C0EFFF0FEEF1F0EFCF00F0009E0FEEEF
:101C2000F1F000C0EFFFE4CF00F0E4CFD9FF1200E5
:101C3000D9CFE5FFE1CFD9FF00C0E5FF01C0E5FF47
:101C4000060EE56E61EC04F0006EE65200380F0BF4
:101C5000016E0F0E011601500A0DF3CF01F00F0EA9
:101C60000016005001260150E4CF01F0E4CF00F04F
:101C7000E4CFD9FF1200D9CFE5FFE1CFD9FF00C0F3
:101C8000E5FF01C0E5FF030EE56E61EC04F0006EB8
:101C9000E65200380F0B016E030E011601500A0DBB
:101CA000F3CF01F00F0E0016005001260150E4CFD3
:101CB00001F0E4CF00F0E4CFD9FF1200D9CFE5FF67
:101CC000E1CFD9FF00C0E5FF01C0E5FF020EE56EE0
:101CD00061EC04F0006EE65200380F0B016E030E4B
:101CE000011601500A0DF3CF01F00F0E001600503F
:101CF00001260150E4CF01F0E4CF00F0E4CFD9FF9A
:101D00001200D9CFE5FFE1CFD9FF00C0E5FF01C048
:101D1000E5FF010EE56E61EC04F0006EE65200385E
:101D20000F0B016E070E011601500A0DF3CF01F0E3
:101D30000F0E0016005001260150E4CF01F0E4CF51
:101D400000F0E4CFD9FF1200D9CFE5FFE1CFD9FFF2
:101D500000C0E5FF01C0E5FF000EE56E61EC04F098
:101D6000006EE65200380F0B016E070E011601508F
:101D70000A0DF3CF01F00F0E00160050012601509E
:101D8000E4CF01F0E4CF00F0E4CFD9FF1200D9CFC7
:101D9000E5FFE1CFD9FF00C0E5FF01C0E5FF040E7C
:101DA000E56E61EC04F0006EE6520050100BE8386E
:101DB000016E01500A0DF3CF01F00F0E0016005016
:101DC00001260150E4CF01F0E4CF00F0E4CFD9FFC9
:101DD0001200D9CFE5FFE1CFD9FF00C0E5FF0FEE3C
:101DE00092F0EFCF00F000800FEE92F000C0EFFF16
:101DF0000FEEC2F0010EEF6E0FEEC1F00E0EEF6EA1
:101E00000FEEC0F0AA0EEF6EE4CF00F0E4CFD9FFE2
:101E10001200D9CFE5FFE1CFD9FF00C0E5FF0FEEFB
:101E200094F0EFCF00F000980FEE94F000C0EFFFB9
:101E30000FEE94F0EFCF00F000960FEE94F000C09C
:101E4000EFFFE4CF00F0E4CFD9FF1200D9CFE5FFD8
:101E5000E1CFD9FF00C0E5FF01C0E5FF020EDBCFF7
:101E600000F00FEE9EF0EFCF01F001A8FAD70FEED1
:101E7000ADF000C0EFFFE4CF01F0E4CF00F0E4CF1D
:101E8000D9FF1200D9CFE5FFE1CFD9FF00C0E5FFB0
:101E90000FEE93F0F00EEF6E0FEEF1F0EFCF00F0DB
:101EA000009E0FEEF1F000C0EFFF0FEEC1F00E0E3E
:101EB000EF6EE4CF00F0E4CFD9FF1200D9CFE5FFF9
:101EC000E1CFD9FF00C0E5FF01C0E5FFC80E006EFD
:101ED0008FEC0FF00004016E01C000F00150F8E13A
:101EE000E4CF01F0E4CF00F0E4CFD9FF1200D9CF66
:101EF000E5FFE1CFD9FF00C0E5FF0FEED5F0080EFA
:101F0000EF6E0FEED5F0EFCF00F0008E0FEED5F0B4
:101F100000C0EFFFE4CF00F0E4CFD9FF1200D9CF2B
:101F2000E5FFE1CFD9FF00C0E5FF01C0E5FF190ED5
:101F3000006E0004016E01C000F00150FAE1E4CF30
:101F400001F0E4CF00F0E4CFD9FF1200D9CFE5FFD4
:101F5000E1CFD9FF00C0E5FF020EDBCF00F000505B
:101F6000E56E050EE56E2EEC0AF0E652E652E4CF81
:101F700000F0E4CFD9FF1200D9CFE5FFE1CFD9FFC0
:101F800000C0E5FF050EE56E61EC04F0006EE65260
:101F90000F0E00160050E4CF00F0E4CFD9FF12007E
:101FA000D9CFE5FFE1CFD9FF00C0E5FF0FEEF2F09A
:101FB000EFCF00F0040E00160050E4CF00F0E4CFA5
:101FC000D9FF1200D9CFE5FFE1CFD9FF00C0E5FF6F
:101FD0000FEEF2F0EFCF00F000A4FAD7E4CF00F05C
:101FE000E4CFD9FF1200D9CFE5FFE1CFD9FF00013F
:101FF0008051E4CFD9FF12003F065B4F666D7D072D
:102000007F6F777C395E79710100040000008000E9
:06201000000004000000C6
:020000040030CA
:0100010002FC
:0100030000FC
:020005008381F5
:00000001FF
